{"abi":[{"type":"constructor","inputs":[{"name":"baseTokenURI","type":"string","internalType":"string"}],"stateMutability":"nonpayable"},{"type":"function","name":"approve","inputs":[{"name":"to","type":"address","internalType":"address"},{"name":"tokenId","type":"uint256","internalType":"uint256"}],"outputs":[],"stateMutability":"nonpayable"},{"type":"function","name":"balanceOf","inputs":[{"name":"owner","type":"address","internalType":"address"}],"outputs":[{"name":"","type":"uint256","internalType":"uint256"}],"stateMutability":"view"},{"type":"function","name":"getApproved","inputs":[{"name":"tokenId","type":"uint256","internalType":"uint256"}],"outputs":[{"name":"","type":"address","internalType":"address"}],"stateMutability":"view"},{"type":"function","name":"isApprovedForAll","inputs":[{"name":"owner","type":"address","internalType":"address"},{"name":"operator","type":"address","internalType":"address"}],"outputs":[{"name":"","type":"bool","internalType":"bool"}],"stateMutability":"view"},{"type":"function","name":"mintCertification","inputs":[{"name":"recipient","type":"address","internalType":"address"},{"name":"level","type":"uint256","internalType":"uint256"}],"outputs":[],"stateMutability":"nonpayable"},{"type":"function","name":"name","inputs":[],"outputs":[{"name":"","type":"string","internalType":"string"}],"stateMutability":"view"},{"type":"function","name":"owner","inputs":[],"outputs":[{"name":"","type":"address","internalType":"address"}],"stateMutability":"view"},{"type":"function","name":"ownerOf","inputs":[{"name":"tokenId","type":"uint256","internalType":"uint256"}],"outputs":[{"name":"","type":"address","internalType":"address"}],"stateMutability":"view"},{"type":"function","name":"renounceOwnership","inputs":[],"outputs":[],"stateMutability":"nonpayable"},{"type":"function","name":"safeTransferFrom","inputs":[{"name":"from","type":"address","internalType":"address"},{"name":"to","type":"address","internalType":"address"},{"name":"tokenId","type":"uint256","internalType":"uint256"}],"outputs":[],"stateMutability":"nonpayable"},{"type":"function","name":"safeTransferFrom","inputs":[{"name":"from","type":"address","internalType":"address"},{"name":"to","type":"address","internalType":"address"},{"name":"tokenId","type":"uint256","internalType":"uint256"},{"name":"data","type":"bytes","internalType":"bytes"}],"outputs":[],"stateMutability":"nonpayable"},{"type":"function","name":"setApprovalForAll","inputs":[{"name":"operator","type":"address","internalType":"address"},{"name":"approved","type":"bool","internalType":"bool"}],"outputs":[],"stateMutability":"nonpayable"},{"type":"function","name":"setBaseTokenURI","inputs":[{"name":"baseTokenURI","type":"string","internalType":"string"}],"outputs":[],"stateMutability":"nonpayable"},{"type":"function","name":"supportsInterface","inputs":[{"name":"interfaceId","type":"bytes4","internalType":"bytes4"}],"outputs":[{"name":"","type":"bool","internalType":"bool"}],"stateMutability":"view"},{"type":"function","name":"symbol","inputs":[],"outputs":[{"name":"","type":"string","internalType":"string"}],"stateMutability":"view"},{"type":"function","name":"tokenURI","inputs":[{"name":"tokenId","type":"uint256","internalType":"uint256"}],"outputs":[{"name":"","type":"string","internalType":"string"}],"stateMutability":"view"},{"type":"function","name":"transferFrom","inputs":[{"name":"from","type":"address","internalType":"address"},{"name":"to","type":"address","internalType":"address"},{"name":"tokenId","type":"uint256","internalType":"uint256"}],"outputs":[],"stateMutability":"nonpayable"},{"type":"function","name":"transferOwnership","inputs":[{"name":"newOwner","type":"address","internalType":"address"}],"outputs":[],"stateMutability":"nonpayable"},{"type":"event","name":"Approval","inputs":[{"name":"owner","type":"address","indexed":true,"internalType":"address"},{"name":"approved","type":"address","indexed":true,"internalType":"address"},{"name":"tokenId","type":"uint256","indexed":true,"internalType":"uint256"}],"anonymous":false},{"type":"event","name":"ApprovalForAll","inputs":[{"name":"owner","type":"address","indexed":true,"internalType":"address"},{"name":"operator","type":"address","indexed":true,"internalType":"address"},{"name":"approved","type":"bool","indexed":false,"internalType":"bool"}],"anonymous":false},{"type":"event","name":"CertificationMinted","inputs":[{"name":"recipient","type":"address","indexed":true,"internalType":"address"},{"name":"tokenId","type":"uint256","indexed":false,"internalType":"uint256"},{"name":"level","type":"uint256","indexed":false,"internalType":"uint256"}],"anonymous":false},{"type":"event","name":"OwnershipTransferred","inputs":[{"name":"previousOwner","type":"address","indexed":true,"internalType":"address"},{"name":"newOwner","type":"address","indexed":true,"internalType":"address"}],"anonymous":false},{"type":"event","name":"Transfer","inputs":[{"name":"from","type":"address","indexed":true,"internalType":"address"},{"name":"to","type":"address","indexed":true,"internalType":"address"},{"name":"tokenId","type":"uint256","indexed":true,"internalType":"uint256"}],"anonymous":false},{"type":"error","name":"ERC721IncorrectOwner","inputs":[{"name":"sender","type":"address","internalType":"address"},{"name":"tokenId","type":"uint256","internalType":"uint256"},{"name":"owner","type":"address","internalType":"address"}]},{"type":"error","name":"ERC721InsufficientApproval","inputs":[{"name":"operator","type":"address","internalType":"address"},{"name":"tokenId","type":"uint256","internalType":"uint256"}]},{"type":"error","name":"ERC721InvalidApprover","inputs":[{"name":"approver","type":"address","internalType":"address"}]},{"type":"error","name":"ERC721InvalidOperator","inputs":[{"name":"operator","type":"address","internalType":"address"}]},{"type":"error","name":"ERC721InvalidOwner","inputs":[{"name":"owner","type":"address","internalType":"address"}]},{"type":"error","name":"ERC721InvalidReceiver","inputs":[{"name":"receiver","type":"address","internalType":"address"}]},{"type":"error","name":"ERC721InvalidSender","inputs":[{"name":"sender","type":"address","internalType":"address"}]},{"type":"error","name":"ERC721NonexistentToken","inputs":[{"name":"tokenId","type":"uint256","internalType":"uint256"}]},{"type":"error","name":"OwnableInvalidOwner","inputs":[{"name":"owner","type":"address","internalType":"address"}]},{"type":"error","name":"OwnableUnauthorizedAccount","inputs":[{"name":"account","type":"address","internalType":"address"}]}],"bytecode":{"object":"0x608060405234801561001057600080fd5b5060405161166638038061166683398101604081905261002f91610154565b336040518060400160405280601981526020017f43727970746f51756573742043657274696669636174696f6e000000000000008152506040518060400160405280600381526020016243514360e81b815250816000908161009191906102a9565b50600161009e82826102a9565b5050506001600160a01b0381166100cf57604051631e4fbdf760e01b81526000600482015260240160405180910390fd5b6100d8816100ec565b5060086100e582826102a9565b5050610367565b600680546001600160a01b038381166001600160a01b0319831681179093556040519116919082907f8be0079c531659141344cd1fd0a4f28419497f9722a3daafe3b4186f6b6457e090600090a35050565b634e487b7160e01b600052604160045260246000fd5b60006020828403121561016657600080fd5b81516001600160401b0381111561017c57600080fd5b8201601f8101841361018d57600080fd5b80516001600160401b038111156101a6576101a661013e565b604051601f8201601f19908116603f011681016001600160401b03811182821017156101d4576101d461013e565b6040528181528282016020018610156101ec57600080fd5b60005b8281101561020b576020818501810151838301820152016101ef565b50600091810160200191909152949350505050565b600181811c9082168061023457607f821691505b60208210810361025457634e487b7160e01b600052602260045260246000fd5b50919050565b601f8211156102a457806000526020600020601f840160051c810160208510156102815750805b601f840160051c820191505b818110156102a1576000815560010161028d565b50505b505050565b81516001600160401b038111156102c2576102c261013e565b6102d6816102d08454610220565b8461025a565b6020601f82116001811461030a57600083156102f25750848201515b600019600385901b1c1916600184901b1784556102a1565b600084815260208120601f198516915b8281101561033a578785015182556020948501946001909201910161031a565b50848210156103585786840151600019600387901b60f8161c191681555b50505050600190811b01905550565b6112f0806103766000396000f3fe608060405234801561001057600080fd5b50600436106101165760003560e01c8063715018a6116100a2578063b88d4fde11610071578063b88d4fde14610239578063c87b56dd1461024c578063e985e9c51461025f578063f2fde38b14610272578063f6182fa31461028557600080fd5b8063715018a6146102055780638da5cb5b1461020d57806395d89b411461021e578063a22cb4651461022657600080fd5b806323b872dd116100e957806323b872dd1461019857806330176e13146101ab57806342842e0e146101be5780636352211e146101d157806370a08231146101e457600080fd5b806301ffc9a71461011b57806306fdde0314610143578063081812fc14610158578063095ea7b314610183575b600080fd5b61012e610129366004610dd5565b610298565b60405190151581526020015b60405180910390f35b61014b6102ea565b60405161013a9190610e42565b61016b610166366004610e55565b61037c565b6040516001600160a01b03909116815260200161013a565b610196610191366004610e8a565b6103a5565b005b6101966101a6366004610eb4565b6103b4565b6101966101b9366004610f81565b610444565b6101966101cc366004610eb4565b610458565b61016b6101df366004610e55565b610478565b6101f76101f2366004610fca565b610483565b60405190815260200161013a565b6101966104cb565b6006546001600160a01b031661016b565b61014b6104df565b610196610234366004610fe5565b6104ee565b610196610247366004611021565b6104f9565b61014b61025a366004610e55565b610511565b61012e61026d36600461109d565b610579565b610196610280366004610fca565b6105a7565b610196610293366004610e8a565b6105e5565b60006001600160e01b031982166380ac58cd60e01b14806102c957506001600160e01b03198216635b5e139f60e01b145b806102e457506301ffc9a760e01b6001600160e01b03198316145b92915050565b6060600080546102f9906110d0565b80601f0160208091040260200160405190810160405280929190818152602001828054610325906110d0565b80156103725780601f1061034757610100808354040283529160200191610372565b820191906000526020600020905b81548152906001019060200180831161035557829003601f168201915b5050505050905090565b600061038782610656565b506000828152600460205260409020546001600160a01b03166102e4565b6103b082823361068f565b5050565b6001600160a01b0382166103e357604051633250574960e11b8152600060048201526024015b60405180910390fd5b60006103f083833361069c565b9050836001600160a01b0316816001600160a01b03161461043e576040516364283d7b60e01b81526001600160a01b03808616600483015260248201849052821660448201526064016103da565b50505050565b61044c610795565b60086103b08282611151565b610473838383604051806020016040528060008152506104f9565b505050565b60006102e482610656565b60006001600160a01b0382166104af576040516322718ad960e21b8152600060048201526024016103da565b506001600160a01b031660009081526003602052604090205490565b6104d3610795565b6104dd60006107c2565b565b6060600180546102f9906110d0565b6103b0338383610814565b6105048484846103b4565b61043e33858585856108b3565b606061051c82610656565b5060006105276109de565b905060008151116105475760405180602001604052806000815250610572565b80610551846109ed565b604051602001610562929190611210565b6040516020818303038152906040525b9392505050565b6001600160a01b03918216600090815260056020908152604080832093909416825291909152205460ff1690565b6105af610795565b6001600160a01b0381166105d957604051631e4fbdf760e01b8152600060048201526024016103da565b6105e2816107c2565b50565b6001600760008282546105f8919061123f565b9250508190555061060b82600754610a80565b60075460408051918252602082018390526001600160a01b038416917fb969d78bea6446923bccb9edb8ce3d4a5efa24e34f51a109efc03f3843aad131910160405180910390a25050565b6000818152600260205260408120546001600160a01b0316806102e457604051637e27328960e01b8152600481018490526024016103da565b6104738383836001610a9a565b6000828152600260205260408120546001600160a01b03908116908316156106c9576106c9818486610ba0565b6001600160a01b03811615610707576106e6600085600080610a9a565b6001600160a01b038116600090815260036020526040902080546000190190555b6001600160a01b03851615610736576001600160a01b0385166000908152600360205260409020805460010190555b60008481526002602052604080822080546001600160a01b0319166001600160a01b0389811691821790925591518793918516917fddf252ad1be2c89b69c2b068fc378daa952ba7f163c4a11628f55a4df523b3ef91a4949350505050565b6006546001600160a01b031633146104dd5760405163118cdaa760e01b81523360048201526024016103da565b600680546001600160a01b038381166001600160a01b0319831681179093556040519116919082907f8be0079c531659141344cd1fd0a4f28419497f9722a3daafe3b4186f6b6457e090600090a35050565b6001600160a01b03821661084657604051630b61174360e31b81526001600160a01b03831660048201526024016103da565b6001600160a01b03838116600081815260056020908152604080832094871680845294825291829020805460ff191686151590811790915591519182527f17307eab39ab6107e8899845ad3d59bd9653f200f220920489ca2b5937696c31910160405180910390a3505050565b6001600160a01b0383163b156109d757604051630a85bd0160e11b81526001600160a01b0384169063150b7a02906108f5908890889087908790600401611260565b6020604051808303816000875af1925050508015610930575060408051601f3d908101601f1916820190925261092d9181019061129d565b60015b610999573d80801561095e576040519150601f19603f3d011682016040523d82523d6000602084013e610963565b606091505b50805160000361099157604051633250574960e11b81526001600160a01b03851660048201526024016103da565b805181602001fd5b6001600160e01b03198116630a85bd0160e11b146109d557604051633250574960e11b81526001600160a01b03851660048201526024016103da565b505b5050505050565b6060600880546102f9906110d0565b606060006109fa83610c04565b600101905060008167ffffffffffffffff811115610a1a57610a1a610ef1565b6040519080825280601f01601f191660200182016040528015610a44576020820181803683370190505b5090508181016020015b600019016f181899199a1a9b1b9c1cb0b131b232b360811b600a86061a8153600a8504945084610a4e57509392505050565b6103b0828260405180602001604052806000815250610cdc565b8080610aae57506001600160a01b03821615155b15610b70576000610abe84610656565b90506001600160a01b03831615801590610aea5750826001600160a01b0316816001600160a01b031614155b8015610afd5750610afb8184610579565b155b15610b265760405163a9fbf51f60e01b81526001600160a01b03841660048201526024016103da565b8115610b6e5783856001600160a01b0316826001600160a01b03167f8c5be1e5ebec7d5bd14f71427d1e84f3dd0314c0f7b2291e5b200ac8c7c3b92560405160405180910390a45b505b5050600090815260046020526040902080546001600160a01b0319166001600160a01b0392909216919091179055565b610bab838383610cf4565b610473576001600160a01b038316610bd957604051637e27328960e01b8152600481018290526024016103da565b60405163177e802f60e01b81526001600160a01b0383166004820152602481018290526044016103da565b60008072184f03e93ff9f4daa797ed6e38ed64bf6a1f0160401b8310610c435772184f03e93ff9f4daa797ed6e38ed64bf6a1f0160401b830492506040015b6d04ee2d6d415b85acef81000000008310610c6f576d04ee2d6d415b85acef8100000000830492506020015b662386f26fc100008310610c8d57662386f26fc10000830492506010015b6305f5e1008310610ca5576305f5e100830492506008015b6127108310610cb957612710830492506004015b60648310610ccb576064830492506002015b600a83106102e45760010192915050565b610ce68383610d5a565b6104733360008585856108b3565b60006001600160a01b03831615801590610d525750826001600160a01b0316846001600160a01b03161480610d2e5750610d2e8484610579565b80610d5257506000828152600460205260409020546001600160a01b038481169116145b949350505050565b6001600160a01b038216610d8457604051633250574960e11b8152600060048201526024016103da565b6000610d928383600061069c565b90506001600160a01b03811615610473576040516339e3563760e11b8152600060048201526024016103da565b6001600160e01b0319811681146105e257600080fd5b600060208284031215610de757600080fd5b813561057281610dbf565b60005b83811015610e0d578181015183820152602001610df5565b50506000910152565b60008151808452610e2e816020860160208601610df2565b601f01601f19169290920160200192915050565b6020815260006105726020830184610e16565b600060208284031215610e6757600080fd5b5035919050565b80356001600160a01b0381168114610e8557600080fd5b919050565b60008060408385031215610e9d57600080fd5b610ea683610e6e565b946020939093013593505050565b600080600060608486031215610ec957600080fd5b610ed284610e6e565b9250610ee060208501610e6e565b929592945050506040919091013590565b634e487b7160e01b600052604160045260246000fd5b60008067ffffffffffffffff841115610f2257610f22610ef1565b50604051601f19601f85018116603f0116810181811067ffffffffffffffff82111715610f5157610f51610ef1565b604052838152905080828401851015610f6957600080fd5b83836020830137600060208583010152509392505050565b600060208284031215610f9357600080fd5b813567ffffffffffffffff811115610faa57600080fd5b8201601f81018413610fbb57600080fd5b610d5284823560208401610f07565b600060208284031215610fdc57600080fd5b61057282610e6e565b60008060408385031215610ff857600080fd5b61100183610e6e565b91506020830135801515811461101657600080fd5b809150509250929050565b6000806000806080858703121561103757600080fd5b61104085610e6e565b935061104e60208601610e6e565b925060408501359150606085013567ffffffffffffffff81111561107157600080fd5b8501601f8101871361108257600080fd5b61109187823560208401610f07565b91505092959194509250565b600080604083850312156110b057600080fd5b6110b983610e6e565b91506110c760208401610e6e565b90509250929050565b600181811c908216806110e457607f821691505b60208210810361110457634e487b7160e01b600052602260045260246000fd5b50919050565b601f82111561047357806000526020600020601f840160051c810160208510156111315750805b601f840160051c820191505b818110156109d7576000815560010161113d565b815167ffffffffffffffff81111561116b5761116b610ef1565b61117f8161117984546110d0565b8461110a565b6020601f8211600181146111b3576000831561119b5750848201515b600019600385901b1c1916600184901b1784556109d7565b600084815260208120601f198516915b828110156111e357878501518255602094850194600190920191016111c3565b50848210156112015786840151600019600387901b60f8161c191681555b50505050600190811b01905550565b60008351611222818460208801610df2565b835190830190611236818360208801610df2565b01949350505050565b808201808211156102e457634e487b7160e01b600052601160045260246000fd5b6001600160a01b038581168252841660208201526040810183905260806060820181905260009061129390830184610e16565b9695505050505050565b6000602082840312156112af57600080fd5b815161057281610dbf56fea26469706673582212204031f43b4d3d98f555c22f56ca13ca9dffea12d076edb3a790c61dd1f1b2138b64736f6c634300081b0033","linkReferences":{}},"methodIdentifiers":{"approve(address,uint256)":"095ea7b3","balanceOf(address)":"70a08231","getApproved(uint256)":"081812fc","isApprovedForAll(address,address)":"e985e9c5","mintCertification(address,uint256)":"f6182fa3","name()":"06fdde03","owner()":"8da5cb5b","ownerOf(uint256)":"6352211e","renounceOwnership()":"715018a6","safeTransferFrom(address,address,uint256)":"42842e0e","safeTransferFrom(address,address,uint256,bytes)":"b88d4fde","setApprovalForAll(address,bool)":"a22cb465","setBaseTokenURI(string)":"30176e13","supportsInterface(bytes4)":"01ffc9a7","symbol()":"95d89b41","tokenURI(uint256)":"c87b56dd","transferFrom(address,address,uint256)":"23b872dd","transferOwnership(address)":"f2fde38b"},"id":41}